:0400000000000D28C7
:100008007E14803120007F08F0007008FF007E1009
:1000180009000E28203084000030850016308F2318
:1000280053308400833085003630860000308700E6
:100038000C3095237E102000812B20000C1A3428C8
:100048002B08803AC90080304902031D2D28013051
:100058002A02031C4428FF302000AA07FF30432847
:100068002B08803AC90080304902031D3D28193009
:100078002A020318442801302000AA070030AB3DAB
:1000880020002A082B04031D8E280130A807003001
:10009800A93D3C033D04031D7B283E033F04031D8B
:1000A80059280130AC000030AD002908803AC90059
:1000B8004108803A4902031D632840082802031CAE
:1000C8008A2820003A083B04031D8A282E082F049A
:1000D800031D8A284108A9004008A80022000C1125
:1000E80001302000C4000030C500ED218A2801300D
:1000F8002000AE000030AF00AC01AD010130C700F8
:100108000030C80079212000BA01BB012000BE01DF
:10011800BF0108002B08803AC90080304902031D3E
:10012800972819302A02031C080020003B08CB003E
:100138003A08CA002C032D04031DAA284A084B04B8
:10014800031DAA280030C700C800792120003C0CF4
:100158002200031C0C1103180C1500302000C400E9
:10016800C500ED212000AE01AF01AC01AD010130A9
:10017800BE000030BF00A801A9011930AA00003054
:10018800AB00080020008C1AD9282508803AC9003D
:1001980080304902031DD22801302402031CE928BB
:1001A800FF302000A407FF30E8282508803AC9005E
:1001B80080304902031DE228193024020318E92877
:1001C80001302000A4070030A53D200024082504A4
:1001D800031D062936033704031DFB283803390499
:1001E800031D02290130A6000030A7000229A6013C
:1001F800A7010130C7000030C800B3212000B801B2
:10020800B90108002508803AC90080304902031D59
:100218000F2919302402031C080020002603270494
:10022800031D1A290030C700C800B3212000A60109
:10023800A7010130B8000030B9001930A40000301F
:10024800A5000800F90000308B1B0130F8000430CD
:1002580079020318332921307502031C3529FF3030
:1002680008007908F600F7010530F635F70D890B17
:1002780039297608803EFA003F30773DFB008B1322
:100288007B08F2007A08F100CE2223001513151519
:1002980095167508031970297B08230092007A08BF
:1002A80091000130FA070030FB3D74088600870191
:1002B800010893000130F6007608F40794017503ED
:1002C8000319951255309600AA309600951400002F
:1002D80000000130F5024D2923001511780C031C8C
:1002E8008B1303188B1700300800200048083D06C0
:1002F800031D802947083C06031908004808BD006B
:100308004708BC00470C2200031C0C1103180C15ED
:100318002000470C2200031C0E1103180E152000A4
:1003280047084804031D9B2922008E149D2922009A
:100338008E1014302000C2000030C3008422220036
:100348000E118E1020003D08C6003C08C500392358
:1003580014302000C2000030C300842208002000AE
:1003680048083706031DBA29470836060319080046
:100378004808B7004708B600470C2200031C8E1235
:1003880003188E162000470C2200031C0E100318B9
:100398000E14200047084804031DD52922000E1614
:1003A800D72922000E1214302000C2000030C300EA
:1003B800842222000E100E1220003708C6003608CC
:1003C800C500462314302000C2000030C300842238
:1003D8000800200045083B06031DF42944083A0696
:1003E800031908004508BB004408BA00440C220061
:1003F800031C8E1103188E152000440C2200031CC8
:100408000C1003180C14200044084504031D0F2A7F
:1004180022008C14112A22008C1014302000C200F3
:100428000030C300842222000C108C1014302000ED
:10043800C2000030C30084220800FA007408F600E5
:10044800F7010530F635F70D890B262A7608803E28
:10045800F8003F30773DF900213075020318382A3B
:1004680004307402031C502AFF3008007908F20097
:100478007808F100EA227108F6007A0886008701F8
:10048800760881000130F8070030F93D0130F600A8
:100498007608FA070130F5027508031D3A2A00307C
:1004A80008000030FC000030FB000030FA0000308B
:1004B800F900711C672A7508F9077608FA3D77086C
:1004C800FB3D7808FC3D0130F535F60DF70DF80DCC
:1004D800890B682A0130F436F30CF20CF10C890B05
:1004E8006F2A7408730472047104031D5D2A7C0862
:1004F800F4007B08F3007A08F2007908F10008009C
:1005080020004208F1004308F200F301F401003032
:10051800F8000030F7000330F600E830F500552207
:1005280074082000A3007308A2007208A1007108D3
:10053800A000230822042104200403190800FF3026
:10054800A007FF30A13DFF30A23DFF30A33D9D2A0B
:10055800200030083104031D0800F401F40A0430B7
:10056800FB007B08F50032302122FC007C082000CB
:10057800C200320333040319C32AB201B30134039E
:1005880035040319C92AB401B5010130B00000309F
:10059800B100080000308B1B0130F3008B13710889
:1005A8002300910072089200151315161515553081
:1005B8009600AA309600951400000000230015113B
:1005C800730C031C8B1303188B17080000308B1B4C
:1005D8000130F3008B137108230091007208920018
:1005E8001513151400000000730C031C8B1303185B
:1005F8008B1723001408F2001308F10008002100EB
:100608000C108C100C110C168C1623000C122100E7
:100618000E108E100E118E110E128E1222008E12D6
:100628000C118E1177230800882320004408CA0083
:100638004308C9004A08C8004908C70079210030A2
:100648002000C400C500ED21080032302000C2009F
:100658004208F4000430C3004308F50001302621A5
:100668002000C4004408FC0008002000450346049C
:100678000319402BC501C6014608B3004508B2005E
:100688002923080020004503460403194D2BC50102
:10069800C6014608B5004508B40029230800FF3400
:1006A800FF3401340034FF34FF34FF34FF340134A5
:1006B800003400342D346B2320004408CA0043085A
:1006C800C9004A08C8004908C700B321080020002B
:1006D80030083104031D712B9B2320003508C4000A
:1006E8003408C300080021009E171E088F3960389F
:1006F8009E00FC309E051D140800A0230323182328
:100708005F232120C620852BAC2220003308C4009B
:100718003208C3000800640080010131890B902B66
:100728000034FE0012001E00FE0B962B0034200041
:10073800B001B101AC2208007830210099049A0177
:020748000800A7
:020000040001F9
:04000E00E4F9FFFF13
:00000001FF
