:020000000D28C9
:100008007E14803120007F08F0007008FF007E1009
:1000180009000E28F701F801F901FA0120308400DF
:10002800003085001430BC21C721FB00C821FC002A
:10003800B6308400813085001200B4001200B5008B
:100048001200B6001200B7001200B8001200B90082
:100058007E102000862920000C1A41287A08803A50
:10006800F50080307502031D3B2801307902031C1E
:100078005128FF30F907FF3050287A08803AF500F8
:100088007408803A7502031D4B2873087902031817
:1000980051280130F9070030FA3D79087A04031D28
:1000A8009A2801302000AA070030AB3D2C032D040C
:1000B800031D872836033704031D66280130AE0068
:1000C8000030AF002B08803AF5003908803A7502F5
:1000D800031D702838082A02031C962820002808C7
:1000E8002904031D962830083104031D9628390871
:1000F800AB003808AA0022000C110130F1000030D2
:10010800F2004121962801302000B0000030B100F3
:10011800AE01AF010130F1000030F20027212000CC
:10012800A801A9012000B601B70108007A08803AA1
:10013800F5007408803A7502031DA4287308790233
:10014800031C08000030F100F200412120002E03BA
:100158002F04031DB72828082904031DB7280030D9
:10016800F100F200272120002C0C2200031C0C11A6
:1001780003180C152000B001B101AE01AF01013028
:10018800B6000030B700AA01AB017408FA00730882
:10019800F900080020008C1AE0287808803AF50059
:1001A80080307502031DDA2801307702031CF0281D
:1001B800FF30F707FF30EF287808803AF500740819
:1001C800803A7502031DEA28730877020318F0289D
:1001D8000130F7070030F83D77087804031D0F2930
:1001E80001302000A4000030A50034033504031DAD
:1001F8000B2926082704031D032901300429003090
:10020800F500F6017508F1007608F2005B21200080
:10021800B401B50108007808803AF5007408803AFE
:100228007502031D192973087702031C08000130A1
:100238002000B4000030B500A401A5017408F8003E
:100248007308F700080072082000AD007108AC00C0
:10025800710C2200031C0C1103180C157108720490
:10026800031D392922008E143B2922008E10710C9F
:10027800031C0E1103180E15080072082000A900AF
:100288007108A800710C2200031C8E1103188E152A
:1002980071087204031D532922000C1455292200E9
:1002A8000C10710C031C8C1003188C1408007208B5
:1002B8002000A7007108A600710C2200031C8E12F2
:1002C80003188E1671087204031D6D2922000E167C
:1002D8006F2922000E12710C031C0E1003180E1445
:1002E800080021000C108C100C110C168C16230021
:1002F8000C1221000E108E100E118E110E128E127D
:10030800A4210800C22175219521AE217C08F400A2
:100318007B08F3002F207C08F4007B08F300CE2034
:100328008A292000AC01AD0122000C118E140E1197
:100338002000A801A90122008E110C108C140800BD
:1003480021009E171E088F3960389E00FC309E05DC
:100358001D1408002000A601A70122008E120E1607
:100368000E100800013400340134003400342D34F8
:10037800640080010131890BBD29003478302100E7
:0A03880099049A01080019340034AA
:020000040001F9
:04000E00E4F9FFFF13
:00000001FF
