:0400000000000D28C7
:100008007E14803120007F08F0007008FF007E1009
:1000180009000E2820308400003085001A30832320
:1000280061308400833085003A30860000308700D4
:100038000A3089237E102000752B20008C1A342862
:100048003108803ACB0080304B02031D2D28013047
:100058003002031C4428FF302000B007FF3043283B
:100068003108803ACB0080304B02031D3D281930FF
:1000780030020318442801302000B0070030B13D99
:10008800200030083104031D8F280130AE070030EE
:10009800AF3D2F08803ACB003B08803A4B02031D46
:1000A80057283A082E02031C732820003B08AF008B
:1000B8003A08AE000030C900CA00E2212000B201AF
:1000C800B30140084104031D8B280130B4000030FF
:1000D800B5000130C9000030CA00A8218B282000D3
:1000E80040034104031D832842034304031D8B2856
:1000F8000130B2000030B300B401B5018B280130E3
:10010800B4000030B5000130B2000030B300200068
:10011800C201C30108003108803ACB0080304B028D
:10012800031D982819303002031C080020003203F0
:100138003304031DA4283508CA003408C900A821BF
:100148002000400C2200031C8E1203188E1620007B
:10015800B401B501B201B3010130C2000030C300DF
:10016800AE01AF011930B0000030B1000800200026
:100178000C1ACE282908803ACB0080304B02031D88
:10018800C72801302802031CDE28FF302000A807FA
:10019800FF30DD282908803ACB0080304B02031D50
:1001A800D728193028020318DE2801302000A807B4
:1001B8000030A93D200028082904031D2929013001
:1001C800A6070030A73D2708803ACB003B08803AB5
:1001D8004B02031DF1283A082602031C0D292000B2
:1001E8003B08A7003A08A6000030C900CA00A821A9
:1001F8002000AA01AB013C083D04031D252901305C
:10020800AC000030AD000130C9000030CA00E22166
:10021800252920003C033D04031D1D293E033F04FE
:10022800031D25290130AA000030AB00AC01AD0147
:1002380025290130AC000030AD000130AA000030A3
:10024800AB002000BE01BF0108002908803ACB009E
:1002580080304B02031D322919302802031C080084
:1002680020002A032B04031D3E292D08CA002C0850
:10027800C900E22120003C0C2200031C0C110318C9
:100288000C152000AC01AD01AA01AB010130BE0084
:100298000030BF00A601A7011930A8000030A9004E
:1002A8000800F90000308B1B0130F8000430790297
:1002B8000318622921307502031C6429FF300800E5
:1002C8007908F600F7010530F635F70D890B68292E
:1002D8007608803EFA003F30773DFB008B137B08A1
:1002E800F2007A08F100C922230015131515951696
:1002F800750803199F297B08230092007A0891004A
:100308000130FA070030FB3D7408860087010108B8
:1003180093000130F6007608F40794017503031979
:10032800951255309600AA309600951400000000EA
:100338000130F5027C2923001511780C031C8B135E
:1003480003188B170030080020004A084106031DD7
:10035800AF2949084006031908004A08C10049089E
:10036800C000490C2200031C8E1203188E162000B0
:10037800490C2200031C0E1003180E142000490813
:100388004A04031DCA2922000E16CC2922000E1287
:1003980014302000C4000030C5007F2222000E1057
:1003A8000E1220004108C8004008C700232314305B
:1003B8002000C4000030C5007F22080020004A0841
:1003C8003D06031DE92949083C06031908004A08A7
:1003D800BD004908BC00490C2200031C0C1103187D
:1003E8000C152000490C2200031C0E1103180E15D1
:1003F800200049084A04031D042A22008E14062AF4
:1004080022008E1014302000C4000030C5007F2266
:1004180022000E118E1020003D08C8003C08C700BD
:10042800302314302000C4000030C5007F220800AB
:10043800FA007408F600F7010530F635F70D890B58
:10044800212A7608803EF8003F30773DF9002130B8
:1004580075020318332A04307402031C4B2AFF3038
:1004680008007908F2007808F100E5227108F60022
:100478007A0886008701760881000130F807003085
:10048800F93D0130F6007608FA070130F5027508E3
:10049800031D352A003008000030FC000030FB0046
:1004A8000030FA000030F900711C622A7508F9075B
:1004B8007608FA3D7708FB3D7808FC3D0130F535B4
:1004C800F60DF70DF80D890B632A0130F436F30C9D
:1004D800F20CF10C890B6A2A740873047204710413
:1004E800031D582A7C08F4007B08F3007A08F20000
:1004F8007908F100080020004408F1004508F200DE
:10050800F301F4010030F8000030F7000330F60082
:10051800E830F500502274082000A3007308A200F8
:100528007208A1007108A0002308220421042004F5
:1005380003190800FF30A007FF30A13DFF30A23D9E
:10054800FF30A33D982A200024082504031D080035
:10055800F401F40A0430FB007B08F50036301C2255
:10056800FC007C082000C400360337040319BE2AA7
:10057800B601B701380339040319C42AB801B9010F
:100588000130A4000030A500080000308B1B0130AA
:10059800F3008B1371082300910072089200151361
:1005A8001516151555309600AA30960095140000BA
:1005B800000023001511730C031C8B1303188B17F1
:1005C800080000308B1B0130F3008B1371082300E7
:1005D8009100720892001513151400000000730CA6
:1005E800031C8B1303188B1723001408F20013083D
:1005F800F100080021000C108C100C110C168C1640
:1006080023000C1221000E108E100E118E110E12E6
:100618008E1222008E120C118E116B2308003630B8
:100628002000C4004408F4000430C5004508F50063
:10063800013055212000C6004608FC0008002000B3
:100648004703480403192A2BC701C8014808B90001
:100658004708B8001323080020004703480403197B
:10066800372BC701C8014808B7004708B60013234D
:100678000800492320004608CC004508CB004C0858
:10068800CA004B08C900A821080020002408250436
:10069800031D4F2B8F2320003908C6003808C500DA
:1006A80008007C2320004608CC004508CB004C08F5
:1006B800CA004B08C900E221080000342D34FF3479
:1006C800FF3401340034FF34FF3401340034210096
:1006D8009E171E088F3960389E00FC309E051D1439
:1006E80008009423FE2255233D23BB202120792B8B
:1006F800A72220003708C6003608C5000800640095
:1007080080010131890B842B0034FE0012001E0089
:10071800FE0B8A2B00342000A401A501A7220800A3
:0A0728007830210099049A010800BE
:020000040001F9
:04000E00E4F9FFFF13
:00000001FF
