:0400000000000D28C7
:100008007E14803120007F08F0007008FF007E1009
:1000180009000E2820308400003085001A3065233E
:1000280043308400833085003A30860000308700F2
:100038000A306B237E102000572B20008C1A34289E
:100048003108803ACB0080304B02031D2D28013047
:100058003002031C4428FF302000B007FF3043283B
:100068003108803ACB0080304B02031D3D281930FF
:1000780030020318442801302000B0070030B13D99
:10008800200030083104031D80280130AE070030FD
:10009800AF3D2F08803ACB003B08803A4B02031D46
:1000A80057283A082E02031C652820003B08AF0099
:1000B8003A08AE000030C900CA00C4212000B201CD
:1000C800B301200040034104031D75284203430483
:1000D800031D7D280130B2000030B300B401B50122
:1000E8007D280130B4000030B5000130B200003086
:1000F800B300C201C30108003108803ACB00803048
:100108004B02031D892819303002031C0800200007
:1001180032033304031D95283508CA003408C90082
:100128008A212000400C2200031C8E1203188E1610
:100138002000B401B501B201B3010130C2000030A2
:10014800C300AE01AF011930B0000030B1000800A3
:1001580020000C1ABF282908803ACB0080304B02B7
:10016800031DB82801302802031CCF28FF302000C7
:10017800A807FF30CE282908803ACB0080304B02F0
:10018800031DC828193028020318CF280130200081
:10019800A8070030A93D200028082904031D0B29C1
:1001A8000130A6070030A73D2708803ACB003B085E
:1001B800803A4B02031DE2283A082602031CF02865
:1001C80020003B08A7003A08A6000030C900CA0072
:1001D8008A212000AA01AB0120003C033D04031D35
:1001E80000293E033F04031D08290130AA000030FE
:1001F800AB00AC01AD0108290130AC000030AD0006
:100208000130AA000030AB00BE01BF010800290878
:10021800803ACB0080304B02031D14291930280284
:10022800031C080020002A032B04031D20292D0885
:10023800CA002C08C900C42120003C0C2200031C61
:100248000C1103180C152000AC01AD01AA01AB017B
:100258000130BE000030BF00A601A7011930A80078
:100268000030A9000800F90000308B1B0130F800AD
:10027800043079020318442921307502031C4629E9
:10028800FF3008007908F600F7010530F635F70D5C
:10029800890B4A297608803EFA003F30773DFB00FB
:1002A8008B137B08F2007A08F100AB2223001513A8
:1002B800151595167508031981297B0823009200E6
:1002C8007A0891000130FA070030FB3D7408860077
:1002D8008701010893000130F6007608F4079401BD
:1002E80075030319951255309600AA309600951497
:1002F800000000000130F5025E2923001511780C7A
:10030800031C8B1303188B170030080020004A08C1
:100318004106031D912949084006031908004A08A7
:10032800C1004908C000490C2200031C8E120318A2
:100338008E162000490C2200031C0E1003180E1400
:10034800200049084A04031DAC2922000E16AE29D4
:1003580022000E1214302000C4000030C5006122B3
:1003680022000E100E1220004108C8004008C700E5
:10037800052314302000C4000030C50061220800A5
:1003880020004A083D06031DCB2949083C060319ED
:1003980008004A08BD004908BC00490C2200031C9B
:1003A8000C1103180C152000490C2200031C0E1117
:1003B80003180E15200049084A04031DE6292200E7
:1003C8008E14E82922008E1014302000C40000305A
:1003D800C500612222000E118E1020003D08C800C1
:1003E8003C08C700122314302000C4000030C500A8
:1003F80061220800FA007408F600F7010530F635A6
:10040800F70D890B032A7608803EF8003F30773DC8
:10041800F900213075020318152A04307402031CF0
:100428002D2AFF3008007908F2007808F100C72269
:100438007108F6007A088600870176088100013085
:10044800F8070030F93D0130F6007608FA07013068
:10045800F5027508031D172A003008000030FC005B
:100468000030FB000030FA000030F900711C442A0B
:100478007508F9077608FA3D7708FB3D7808FC3DD2
:100488000130F535F60DF70DF80D890B452A0130C9
:10049800F436F30CF20CF10C890B4C2A7408730433
:1004A80072047104031D3A2A7C08F4007B08F300E7
:1004B8007A08F2007908F100080020004408F100E9
:1004C8004508F200F301F4010030F8000030F700AD
:1004D8000330F600E830F500322274082000A3004B
:1004E8007308A2007208A1007108A0002308220462
:1004F8002104200403190800FF30A007FF30A13DA4
:10050800FF30A23DFF30A33D7A2A200024082504AD
:10051800031D0800F401F40A0430FB007B08F50011
:100528003630FE21FC007C082000C4003603370466
:100538000319A02AB601B701380339040319A62AFA
:10054800B801B9010130A4000030A500080000304E
:100558008B1B0130F3008B13710823009100720884
:10056800920015131516151555309600AA309600E9
:1005780095140000000023001511730C031C8B1345
:1005880003188B17080000308B1B0130F3008B1306
:1005980071082300910072089200151315140000C9
:1005A8000000730C031C8B1303188B17230014080B
:1005B800F2001308F100080021000C108C100C1137
:1005C8000C168C1623000C1221000E108E100E1122
:1005D8008E110E128E1222008E120C118E114D23C6
:1005E800080036302000C4004408F4000430C50078
:1005F8004508F500013037212000C6004608FC00F8
:10060800080020004703480403190C2BC701C80140
:100618004808B9004708B800F52208002000470339
:1006280048040319192BC701C8014808B70047082F
:10063800B600F52208002B2320004608CC00450808
:10064800CB004C08CA004B08C9008A2108002000CA
:1006580024082504031D312B712320003908C60006
:100668003808C50008005E2320004608CC0045086D
:10067800CB004C08CA004B08C900C421080000344C
:100688002D34FF34FF3401340034FF34FF34013497
:10069800003421009E171E088F3960389E00FC30F8
:1006A8009E051D1408007623E02237231F23AC2063
:1006B80021205B2B892220003708C6003608C50098
:1006C8000800640080010131890B662B0034FE00AC
:1006D80012001E00FE0B6C2B00342000A401A501A3
:0E06E800892208007830210099049A01080048
:020000040001F9
:04000E00E4F9FFFF13
:00000001FF
