:0400000000000D28C7
:100008007E14803120007F08F0007008FF007E1009
:1000180009000E2820308400003085001A30C123E2
:100028009F308400833085003A3086000030870096
:100038000A30C7237E102000B32B20008C1A3428E6
:100048003108803ACB0080304B02031D2D28013047
:100058003002031C4428FF302000B007FF3043283B
:100068003108803ACB0080304B02031D3D281930FF
:1000780030020318442801302000B0070030B13D99
:10008800200030083104031D8D280130AE070030F0
:10009800AF3D2F08803ACB003B08803A4B02031D46
:1000A80057283A082E02031C712820003B08AF008D
:1000B8003A08AE0063232000B201B30140084104AE
:1000C800031D6F280130B4000030B5000130C900AD
:1000D8000030CA00A421FA228928200040034104E4
:1000E800031D812842034304031D89280130B200FF
:1000F8000030B300B401B50189280130B4000030E4
:10010800B5000130B2000030B3002000C201C301C5
:1001180008003108803ACB0080304B02031D962836
:1001280019303002031C0800200032033304031D79
:10013800A2283508CA003408C900A4212000400CB0
:100148002200031C8E1203188E162000B401B5017C
:10015800B201B3010130C2000030C300AE01AF01EB
:100168001930B0000030B100080020000C1ACC286B
:100178002908803ACB0080304B02031DC528013086
:100188002802031CDC28FF302000A807FF30DB28EA
:100198002908803ACB0080304B02031DD52819303E
:1001A80028020318DC2801302000A8070030A93DE8
:1001B800200028082904031D25290130A60700303E
:1001C800A73D2708803ACB003B08803A4B02031D25
:1001D800EF283A082602031C092920003B08A7003B
:1001E8003A08A6006F232000AA01AB013C083D0491
:1001F800031D07290130AC000030AD000130C900F3
:100208000030CA00DE210F23212920003C033D04D1
:10021800031D19293E033F04031D21290130AA00AB
:100228000030AB00AC01AD0121290130AC00003039
:10023800AD000130AA000030AB002000BE01BF01B4
:1002480008002908803ACB0080304B02031D2E2974
:1002580019302802031C080020002A032B04031D60
:100268003A292D08CA002C08C900DE2120003C0CC0
:100278002200031C0C1103180C152000AC01AD0161
:10028800AA01AB010130BE000030BF00A601A701E2
:100298001930A8000030A9000800F90000308B1BB5
:1002A8000130F8000430790203185E292130750204
:1002B800031C6029FF3008007908F600F7010530B3
:1002C800F635F70D890B64297608803EFA003F3031
:1002D800773DFB008B137B08F2007A08F100C522FA
:1002E8002300151315159516750803199B297B0806
:1002F800230092007A0891000130FA070030FB3D94
:10030800740886008701010893000130F60076081A
:10031800F407940175030319951255309600AA3015
:1003280096009514000000000130F502782923009A
:100338001511780C031C8B1303188B170030080059
:1003480020004A084106031DAB2949084006031945
:1003580008004A08C1004908C000490C2200031CD3
:100368008E1203188E162000490C2200031C0E1052
:1003780003180E14200049084A04031DC629220048
:100388000E16C82922000E1214302000C4000030B6
:10039800C5007B2222000E100E1220004108C80062
:1003A8004008C700492314302000C4000030C500AD
:1003B8007B22080020004A083D06031DE52949085C
:1003C8003C06031908004A08BD004908BC00490C4E
:1003D8002200031C0C1103180C152000490C2200E4
:1003E800031C0E1103180E15200049084A04031DAA
:1003F800002A22008E14022A22008E1014302000B7
:10040800C4000030C5007B2222000E118E1020008F
:100418003D08C8003C08C700562314302000C4001B
:100428000030C5007B220800FA007408F600F701C6
:100438000530F635F70D890B1D2A7608803EF80041
:100448003F30773DF9002130750203182F2A043018
:100458007402031C472AFF3008007908F200780864
:10046800F100E1227108F6007A0886008701760813
:1004780081000130F8070030F93D0130F6007608B8
:10048800FA070130F5027508031D312A003008000B
:100498000030FC000030FB000030FA000030F900AA
:1004A800711C5E2A7508F9077608FA3D7708FB3D46
:1004B8007808FC3D0130F535F60DF70DF80D890B80
:1004C8005F2A0130F436F30CF20CF10C890B662A22
:1004D8007408730472047104031D542A7C08F40020
:1004E8007B08F3007A08F2007908F1000800200080
:1004F8004408F1004508F200F301F4010030F80067
:100508000030F7000330F600E830F5004C2274089C
:100518002000A3007308A2007208A1007108A000BF
:10052800230822042104200403190800FF30A0072F
:10053800FF30A13DFF30A23DFF30A33D942A2000AB
:1005480024082504031D0800F401F40A0430FB0004
:100558007B08F50036301822FC007C082000C40017
:10056800360337040319BA2AB601B7013803390428
:100578000319C02AB801B9010130A4000030A50050
:10058800080000308B1B0130F3008B137108230027
:10059800910072089200151315161515553096001E
:1005A800AA30960095140000000023001511730C62
:1005B800031C8B1303188B17080000308B1B0130AA
:1005C800F3008B1371082300910072089200151331
:1005D800151400000000730C031C8B1303188B17F1
:1005E80023001408F2001308F1000800143020005A
:1005F800C4000030C5007B2222000E118E1000308E
:100608002000C700C800562314302000C400003062
:10061800C5007B22080014302000C4000030C5004B
:100628007B2222000E100E1200302000C700C800E6
:10063800492314302000C4000030C5007B22080084
:1006480021000C108C100C110C168C1623000C12A7
:1006580021000E108E100E118E110E128E12220015
:100668008E120C118E11A923080036302000C40008
:100678004408F4000430C5004508F5000130512154
:100688002000C6004608FC00080020004703480474
:100698000319502BC701C8014808B9004708B8001A
:1006A8003923080020004703480403195D2BC701BC
:1006B800C8014808B7004708B600392308002000D9
:1006C8003C083D0403190800BC01BD0122000C11BF
:1006D8000E118E1408002000400841040319080078
:1006E800C001C10122008E120E100E1608008723C9
:1006F80020004608CC004508CB004C08CA004B082F
:10070800C900A4210800200024082504031D8D2BFE
:10071800CD2320003908C6003808C5000800BA23D0
:1007280020004608CC004508CB004C08CA004B08FE
:10073800C900DE21080000342D34FF34FF340134B1
:100748000034FF34FF340134003421009E171E08A2
:100758008F3960389E00FC309E051D140800D22396
:10076800242393237B23B9202120B72BA322200005
:100778003708C6003608C50008006400800101314A
:10078800890BC22B0034FE0012001E00FE0BC82B82
:1007980000342000A401A501A3220800783021001C
:0607A80099049A0108000B
:020000040001F9
:04000E00E4F9FFFF13
:00000001FF
